{
  "abi": [
    {
      "inputs": [
        {
          "internalType": "contract ITOKENMANAGER",
          "name": "_tokenmanager",
          "type": "address"
        }
      ],
      "stateMutability": "nonpayable",
      "type": "constructor"
    },
    {
      "inputs": [],
      "name": "NotEnoughFunds",
      "type": "error"
    },
    {
      "anonymous": false,
      "inputs": [
        {
          "indexed": true,
          "internalType": "address",
          "name": "previousOwner",
          "type": "address"
        },
        {
          "indexed": true,
          "internalType": "address",
          "name": "newOwner",
          "type": "address"
        }
      ],
      "name": "OwnershipTransferred",
      "type": "event"
    },
    {
      "inputs": [
        {
          "internalType": "uint256",
          "name": "_amount",
          "type": "uint256"
        },
        {
          "internalType": "uint256",
          "name": "minTYSRate",
          "type": "uint256"
        }
      ],
      "name": "depositThenRecieveCredsAndCredit",
      "outputs": [
        {
          "internalType": "uint256",
          "name": "",
          "type": "uint256"
        }
      ],
      "stateMutability": "nonpayable",
      "type": "function"
    },
    {
      "inputs": [],
      "name": "owner",
      "outputs": [
        {
          "internalType": "address",
          "name": "",
          "type": "address"
        }
      ],
      "stateMutability": "view",
      "type": "function"
    },
    {
      "inputs": [],
      "name": "renounceOwnership",
      "outputs": [],
      "stateMutability": "nonpayable",
      "type": "function"
    },
    {
      "inputs": [
        {
          "internalType": "address",
          "name": "newOwner",
          "type": "address"
        }
      ],
      "name": "transferOwnership",
      "outputs": [],
      "stateMutability": "nonpayable",
      "type": "function"
    }
  ],
  "bytecode": {
    "object": "0x60a0604052600180546001600160a01b03191673fe932d00b9858c42108378053c11be79656116af17905534801561003657600080fd5b5060405161061538038061061583398101604081905261005591610130565b61005e336100e0565b6001600160a01b0381811660805260015460405163095ea7b360e01b8152306004820152600019602482015291169063095ea7b3906044016020604051808303816000875af11580156100b5573d6000803e3d6000fd5b505050506040513d601f19601f820116820180604052508101906100d99190610160565b5050610182565b600080546001600160a01b038381166001600160a01b0319831681178455604051919092169283917f8be0079c531659141344cd1fd0a4f28419497f9722a3daafe3b4186f6b6457e09190a35050565b60006020828403121561014257600080fd5b81516001600160a01b038116811461015957600080fd5b9392505050565b60006020828403121561017257600080fd5b8151801515811461015957600080fd5b60805161047861019d60003960006101d401526104786000f3fe608060405234801561001057600080fd5b506004361061004c5760003560e01c8063084b09a014610051578063715018a6146100775780638da5cb5b14610081578063f2fde38b1461009c575b600080fd5b61006461005f3660046103d7565b6100af565b6040519081526020015b60405180910390f35b61007f610251565b005b6000546040516001600160a01b03909116815260200161006e565b61007f6100aa3660046103f9565b6102bc565b60405163507a3baf60e01b8152737ca043143c6e30bda28ddc7322d7951f538d75e86004820152602481018390526001604482015260648101829052661eb208c2dc0000608482015260009073db5fd0678eed82246b599da6bc36b56157e4bed89063507a3baf9060a401600060405180830381600087803b15801561013457600080fd5b505af1158015610148573d6000803e3d6000fd5b50506001546040516370a0823160e01b8152306004820152600093506001600160a01b0390911691506370a0823190602401602060405180830381865afa158015610197573d6000803e3d6000fd5b505050506040513d601f19601f820116820180604052508101906101bb9190610429565b60405163b6b55f2560e01b8152600481018290529091507f00000000000000000000000000000000000000000000000000000000000000006001600160a01b03169063b6b55f25906024016020604051808303816000875af1158015610225573d6000803e3d6000fd5b505050506040513d601f19601f820116820180604052508101906102499190610429565b949350505050565b6000546001600160a01b031633146102b05760405162461bcd60e51b815260206004820181905260248201527f4f776e61626c653a2063616c6c6572206973206e6f7420746865206f776e657260448201526064015b60405180910390fd5b6102ba6000610387565b565b6000546001600160a01b031633146103165760405162461bcd60e51b815260206004820181905260248201527f4f776e61626c653a2063616c6c6572206973206e6f7420746865206f776e657260448201526064016102a7565b6001600160a01b03811661037b5760405162461bcd60e51b815260206004820152602660248201527f4f776e61626c653a206e6577206f776e657220697320746865207a65726f206160448201526564647265737360d01b60648201526084016102a7565b61038481610387565b50565b600080546001600160a01b038381166001600160a01b0319831681178455604051919092169283917f8be0079c531659141344cd1fd0a4f28419497f9722a3daafe3b4186f6b6457e09190a35050565b600080604083850312156103ea57600080fd5b50508035926020909101359150565b60006020828403121561040b57600080fd5b81356001600160a01b038116811461042257600080fd5b9392505050565b60006020828403121561043b57600080fd5b505191905056fea2646970667358221220247cf0469dbf807316bba84793217f16f8eda201f720d7bc971fff411714b5e164736f6c634300080d0033",
    "linkReferences": {}
  }
}