{
  "abi": [
    {
      "inputs": [
        {
          "internalType": "contract ITOKENMANAGER",
          "name": "_tokenmanager",
          "type": "address"
        }
      ],
      "stateMutability": "nonpayable",
      "type": "constructor"
    },
    {
      "inputs": [],
      "name": "NotEnoughFunds",
      "type": "error"
    },
    {
      "anonymous": false,
      "inputs": [
        {
          "indexed": true,
          "internalType": "address",
          "name": "previousOwner",
          "type": "address"
        },
        {
          "indexed": true,
          "internalType": "address",
          "name": "newOwner",
          "type": "address"
        }
      ],
      "name": "OwnershipTransferred",
      "type": "event"
    },
    {
      "inputs": [],
      "name": "DAI",
      "outputs": [
        {
          "internalType": "address",
          "name": "",
          "type": "address"
        }
      ],
      "stateMutability": "view",
      "type": "function"
    },
    {
      "inputs": [
        {
          "internalType": "uint256",
          "name": "amount",
          "type": "uint256"
        }
      ],
      "name": "claimUnderlying",
      "outputs": [],
      "stateMutability": "nonpayable",
      "type": "function"
    },
    {
      "inputs": [
        {
          "internalType": "uint256",
          "name": "amount",
          "type": "uint256"
        }
      ],
      "name": "decreaseCredit",
      "outputs": [],
      "stateMutability": "nonpayable",
      "type": "function"
    },
    {
      "inputs": [
        {
          "internalType": "uint256",
          "name": "amount",
          "type": "uint256"
        }
      ],
      "name": "depositThenRecieveCredsAndCredit",
      "outputs": [],
      "stateMutability": "nonpayable",
      "type": "function"
    },
    {
      "inputs": [
        {
          "internalType": "uint256",
          "name": "amount",
          "type": "uint256"
        }
      ],
      "name": "increaseCredit",
      "outputs": [],
      "stateMutability": "nonpayable",
      "type": "function"
    },
    {
      "inputs": [],
      "name": "owner",
      "outputs": [
        {
          "internalType": "address",
          "name": "",
          "type": "address"
        }
      ],
      "stateMutability": "view",
      "type": "function"
    },
    {
      "inputs": [],
      "name": "renounceOwnership",
      "outputs": [],
      "stateMutability": "nonpayable",
      "type": "function"
    },
    {
      "inputs": [
        {
          "internalType": "address",
          "name": "newOwner",
          "type": "address"
        }
      ],
      "name": "transferOwnership",
      "outputs": [],
      "stateMutability": "nonpayable",
      "type": "function"
    }
  ],
  "bytecode": {
    "object": "0x60a0604052600180546001600160a01b03191673fe932d00b9858c42108378053c11be79656116af17905534801561003657600080fd5b5060405161068638038061068683398101604081905261005591610130565b61005e336100e0565b6001600160a01b0381811660805260015460405163095ea7b360e01b8152306004820152600019602482015291169063095ea7b3906044016020604051808303816000875af11580156100b5573d6000803e3d6000fd5b505050506040513d601f19601f820116820180604052508101906100d99190610160565b5050610182565b600080546001600160a01b038381166001600160a01b0319831681178455604051919092169283917f8be0079c531659141344cd1fd0a4f28419497f9722a3daafe3b4186f6b6457e09190a35050565b60006020828403121561014257600080fd5b81516001600160a01b038116811461015957600080fd5b9392505050565b60006020828403121561017257600080fd5b8151801515811461015957600080fd5b6080516104e961019d600039600061019801526104e96000f3fe608060405234801561001057600080fd5b50600436106100885760003560e01c806395b40b9f1161005b57806395b40b9f146100d1578063c5e2d2a61461008d578063e0bab4c4146100e4578063f2fde38b146100ff57600080fd5b806361a8cab01461008d5780636d1d298a1461008d578063715018a6146100a05780638da5cb5b146100a8575b600080fd5b61009e61009b36600461042f565b50565b005b61009e610112565b6000546001600160a01b03165b6040516001600160a01b03909116815260200160405180910390f35b61009e6100df36600461042f565b61017d565b6100b5736b175474e89094c44da98b954eedeac495271d0f81565b61009e61010d366004610448565b61031b565b6000546001600160a01b031633146101715760405162461bcd60e51b815260206004820181905260248201527f4f776e61626c653a2063616c6c6572206973206e6f7420746865206f776e657260448201526064015b60405180910390fd5b61017b60006103df565b565b60405163b6b55f2560e01b81526004810182905233906000907f00000000000000000000000000000000000000000000000000000000000000006001600160a01b03169063b6b55f25906024016020604051808303816000875af11580156101e9573d6000803e3d6000fd5b505050506040513d601f19601f8201168201806040525081019061020d9190610478565b6040516323b872dd60e01b81523060048201526001600160a01b0384166024820152604481018290529091507302df3a3f960393f5b349e40a599feda91a7cc1a7906323b872dd906064016020604051808303816000875af1158015610277573d6000803e3d6000fd5b505050506040513d601f19601f8201168201806040525081019061029b9190610491565b506040516323b872dd60e01b81523060048201526001600160a01b03831660248201526001604482015273821f3361d454cc98b7555221a06be563a7e2e0a6906323b872dd90606401600060405180830381600087803b1580156102fe57600080fd5b505af1158015610312573d6000803e3d6000fd5b50505050505050565b6000546001600160a01b031633146103755760405162461bcd60e51b815260206004820181905260248201527f4f776e61626c653a2063616c6c6572206973206e6f7420746865206f776e65726044820152606401610168565b6001600160a01b0381166103da5760405162461bcd60e51b815260206004820152602660248201527f4f776e61626c653a206e6577206f776e657220697320746865207a65726f206160448201526564647265737360d01b6064820152608401610168565b61009b815b600080546001600160a01b038381166001600160a01b0319831681178455604051919092169283917f8be0079c531659141344cd1fd0a4f28419497f9722a3daafe3b4186f6b6457e09190a35050565b60006020828403121561044157600080fd5b5035919050565b60006020828403121561045a57600080fd5b81356001600160a01b038116811461047157600080fd5b9392505050565b60006020828403121561048a57600080fd5b5051919050565b6000602082840312156104a357600080fd5b8151801515811461047157600080fdfea2646970667358221220778f8146971c8c9d9968f4dd014beb608d7d09593468a3ce21d3494aa13c30da64736f6c634300080d0033",
    "linkReferences": {}
  }
}