{
  "abi": [
    {
      "inputs": [
        {
          "internalType": "contract ICREDS",
          "name": "_creds",
          "type": "address"
        },
        {
          "internalType": "contract ICREDIT",
          "name": "_credit",
          "type": "address"
        },
        {
          "internalType": "address payable",
          "name": "_treasury",
          "type": "address"
        },
        {
          "internalType": "address",
          "name": "_tToken",
          "type": "address"
        },
        {
          "internalType": "uint256",
          "name": "_globalCeiling",
          "type": "uint256"
        }
      ],
      "stateMutability": "nonpayable",
      "type": "constructor"
    },
    {
      "inputs": [],
      "name": "CeilingReached",
      "type": "error"
    },
    {
      "inputs": [],
      "name": "EmergencyActive",
      "type": "error"
    },
    {
      "inputs": [],
      "name": "EmergencyNotActive",
      "type": "error"
    },
    {
      "inputs": [],
      "name": "EmptySend",
      "type": "error"
    },
    {
      "inputs": [],
      "name": "FeeTooHigh",
      "type": "error"
    },
    {
      "inputs": [],
      "name": "FeeTooLow",
      "type": "error"
    },
    {
      "inputs": [],
      "name": "NoFeesToTransfer",
      "type": "error"
    },
    {
      "anonymous": false,
      "inputs": [
        {
          "indexed": false,
          "internalType": "address",
          "name": "customer",
          "type": "address"
        },
        {
          "indexed": false,
          "internalType": "uint256",
          "name": "amount",
          "type": "uint256"
        }
      ],
      "name": "AddToCredit",
      "type": "event"
    },
    {
      "anonymous": false,
      "inputs": [
        {
          "indexed": true,
          "internalType": "address",
          "name": "from",
          "type": "address"
        },
        {
          "indexed": false,
          "internalType": "uint256",
          "name": "amount",
          "type": "uint256"
        }
      ],
      "name": "Deposit",
      "type": "event"
    },
    {
      "anonymous": false,
      "inputs": [
        {
          "indexed": true,
          "internalType": "address",
          "name": "previousOwner",
          "type": "address"
        },
        {
          "indexed": true,
          "internalType": "address",
          "name": "newOwner",
          "type": "address"
        }
      ],
      "name": "OwnershipTransferred",
      "type": "event"
    },
    {
      "anonymous": false,
      "inputs": [
        {
          "indexed": false,
          "internalType": "address",
          "name": "account",
          "type": "address"
        }
      ],
      "name": "Paused",
      "type": "event"
    },
    {
      "anonymous": false,
      "inputs": [
        {
          "indexed": true,
          "internalType": "address",
          "name": "customer",
          "type": "address"
        },
        {
          "indexed": false,
          "internalType": "uint256",
          "name": "tokenId",
          "type": "uint256"
        },
        {
          "indexed": false,
          "internalType": "uint256",
          "name": "amount",
          "type": "uint256"
        }
      ],
      "name": "SubtractFromCredit",
      "type": "event"
    },
    {
      "anonymous": false,
      "inputs": [
        {
          "indexed": false,
          "internalType": "address",
          "name": "account",
          "type": "address"
        }
      ],
      "name": "Unpaused",
      "type": "event"
    },
    {
      "anonymous": false,
      "inputs": [
        {
          "indexed": true,
          "internalType": "address",
          "name": "to",
          "type": "address"
        },
        {
          "indexed": false,
          "internalType": "uint256",
          "name": "amount",
          "type": "uint256"
        }
      ],
      "name": "Withdrawal",
      "type": "event"
    },
    {
      "inputs": [],
      "name": "activateEmergency",
      "outputs": [],
      "stateMutability": "nonpayable",
      "type": "function"
    },
    {
      "inputs": [
        {
          "internalType": "uint256",
          "name": "tokenId",
          "type": "uint256"
        },
        {
          "internalType": "uint256",
          "name": "amount",
          "type": "uint256"
        }
      ],
      "name": "addToCredit",
      "outputs": [
        {
          "internalType": "uint256",
          "name": "",
          "type": "uint256"
        }
      ],
      "stateMutability": "nonpayable",
      "type": "function"
    },
    {
      "inputs": [
        {
          "internalType": "uint256",
          "name": "_amount",
          "type": "uint256"
        }
      ],
      "name": "adjustCeiling",
      "outputs": [],
      "stateMutability": "nonpayable",
      "type": "function"
    },
    {
      "inputs": [
        {
          "internalType": "uint256",
          "name": "tokenId",
          "type": "uint256"
        }
      ],
      "name": "claimAllUnderlying",
      "outputs": [],
      "stateMutability": "nonpayable",
      "type": "function"
    },
    {
      "inputs": [],
      "name": "deactivateEmergency",
      "outputs": [],
      "stateMutability": "nonpayable",
      "type": "function"
    },
    {
      "inputs": [
        {
          "internalType": "uint256",
          "name": "amount",
          "type": "uint256"
        }
      ],
      "name": "deposit",
      "outputs": [
        {
          "internalType": "uint256",
          "name": "",
          "type": "uint256"
        }
      ],
      "stateMutability": "nonpayable",
      "type": "function"
    },
    {
      "inputs": [],
      "name": "emergencyStatus",
      "outputs": [
        {
          "internalType": "uint256",
          "name": "",
          "type": "uint256"
        }
      ],
      "stateMutability": "view",
      "type": "function"
    },
    {
      "inputs": [
        {
          "internalType": "uint256",
          "name": "tokenId",
          "type": "uint256"
        }
      ],
      "name": "emergencyWithdraw",
      "outputs": [],
      "stateMutability": "nonpayable",
      "type": "function"
    },
    {
      "inputs": [],
      "name": "feePercentage",
      "outputs": [
        {
          "internalType": "uint256",
          "name": "",
          "type": "uint256"
        }
      ],
      "stateMutability": "view",
      "type": "function"
    },
    {
      "inputs": [],
      "name": "feeToTransfer",
      "outputs": [
        {
          "internalType": "uint256",
          "name": "",
          "type": "uint256"
        }
      ],
      "stateMutability": "view",
      "type": "function"
    },
    {
      "inputs": [],
      "name": "globalCeiling",
      "outputs": [
        {
          "internalType": "uint256",
          "name": "",
          "type": "uint256"
        }
      ],
      "stateMutability": "view",
      "type": "function"
    },
    {
      "inputs": [],
      "name": "globalDepositValue",
      "outputs": [
        {
          "internalType": "uint256",
          "name": "",
          "type": "uint256"
        }
      ],
      "stateMutability": "view",
      "type": "function"
    },
    {
      "inputs": [],
      "name": "owner",
      "outputs": [
        {
          "internalType": "address",
          "name": "",
          "type": "address"
        }
      ],
      "stateMutability": "view",
      "type": "function"
    },
    {
      "inputs": [
        {
          "internalType": "uint256",
          "name": "tokenId",
          "type": "uint256"
        },
        {
          "internalType": "uint256",
          "name": "amount",
          "type": "uint256"
        }
      ],
      "name": "partialWithdraw",
      "outputs": [
        {
          "internalType": "uint256",
          "name": "",
          "type": "uint256"
        }
      ],
      "stateMutability": "nonpayable",
      "type": "function"
    },
    {
      "inputs": [],
      "name": "pause",
      "outputs": [],
      "stateMutability": "nonpayable",
      "type": "function"
    },
    {
      "inputs": [],
      "name": "paused",
      "outputs": [
        {
          "internalType": "bool",
          "name": "",
          "type": "bool"
        }
      ],
      "stateMutability": "view",
      "type": "function"
    },
    {
      "inputs": [],
      "name": "renounceOwnership",
      "outputs": [],
      "stateMutability": "nonpayable",
      "type": "function"
    },
    {
      "inputs": [],
      "name": "sendToFeesTreasury",
      "outputs": [],
      "stateMutability": "nonpayable",
      "type": "function"
    },
    {
      "inputs": [
        {
          "internalType": "address",
          "name": "_tToken",
          "type": "address"
        }
      ],
      "name": "setTempusTokenAddress",
      "outputs": [],
      "stateMutability": "nonpayable",
      "type": "function"
    },
    {
      "inputs": [
        {
          "internalType": "address payable",
          "name": "_newTreasuryAddress",
          "type": "address"
        }
      ],
      "name": "setTreasuryAddress",
      "outputs": [],
      "stateMutability": "nonpayable",
      "type": "function"
    },
    {
      "inputs": [],
      "name": "tToken",
      "outputs": [
        {
          "internalType": "address",
          "name": "",
          "type": "address"
        }
      ],
      "stateMutability": "view",
      "type": "function"
    },
    {
      "inputs": [
        {
          "internalType": "address",
          "name": "newOwner",
          "type": "address"
        }
      ],
      "name": "transferOwnership",
      "outputs": [],
      "stateMutability": "nonpayable",
      "type": "function"
    },
    {
      "inputs": [],
      "name": "unpause",
      "outputs": [],
      "stateMutability": "nonpayable",
      "type": "function"
    }
  ],
  "bytecode": {
    "object": "0x60c06040526001808055601e6006556008819055608052600260a0523480156200002857600080fd5b5060405162001692380380620016928339810160408190526200004b9162000123565b6200005633620000ba565b6000805460ff60a01b19169055600280546001600160a01b03199081166001600160a01b03978816179091556003805482169587169590951790945560098054851693861693909317909255600a8054909316931692909217905560055562000197565b600080546001600160a01b038381166001600160a01b0319831681178455604051919092169283917f8be0079c531659141344cd1fd0a4f28419497f9722a3daafe3b4186f6b6457e09190a35050565b6001600160a01b03811681146200012057600080fd5b50565b600080600080600060a086880312156200013c57600080fd5b855162000149816200010a565b60208701519095506200015c816200010a565b60408701519094506200016f816200010a565b606087015190935062000182816200010a565b80925050608086015190509295509295909350565b60805160a0516114b9620001d9600039600081816105a4015261104e0152600081816104f50152818161057b0152818161061d015261107701526114b96000f3fe608060405234801561001057600080fd5b506004361061014d5760003560e01c806373d0dd0b116100c3578063b5fd0ac71161007c578063b5fd0ac714610272578063b6b55f251461027a578063c35d64ea1461028d578063ee682e09146102a0578063f2fde38b146102a9578063fa686948146102bc57600080fd5b806373d0dd0b1461021757806382b24d3314610220578063830d5d6f146102295780638456cb591461023c5780638da5cb5b14610244578063a001ecdd1461026957600080fd5b80635312ea8e116101155780635312ea8e146101a657806356d02710146101b9578063583046f3146101cc5780635c975abb146101df5780636605bfda146101fc578063715018a61461020f57600080fd5b80630aeb2125146101525780631b43987f14610167578063248d1d80146101835780633f4ba83a14610196578063457e8b971461019e575b600080fd5b6101656101603660046112db565b6102c4565b005b61017060085481565b6040519081526020015b60405180910390f35b6101656101913660046112f8565b610319565b6101656104c9565b610165610526565b6101656101b43660046112f8565b6105c8565b6101706101c7366004611311565b610707565b6101706101da366004611311565b610918565b600054600160a01b900460ff16604051901515815260200161017a565b61016561020a3660046112db565b610b9d565b610165610be9565b61017060045481565b61017060075481565b6101656102373660046112f8565b610c1d565b610165610c4c565b6000546001600160a01b03165b6040516001600160a01b03909116815260200161017a565b61017060065481565b610165610c7e565b6101706102883660046112f8565b610d05565b600a54610251906001600160a01b031681565b61017060055481565b6101656102b73660046112db565b610f8a565b610165611022565b6000546001600160a01b031633146102f75760405162461bcd60e51b81526004016102ee90611333565b60405180910390fd5b600a80546001600160a01b0319166001600160a01b0392909216919091179055565b600054600160a01b900460ff16156103435760405162461bcd60e51b81526004016102ee90611368565b6001546001146103655760405162461bcd60e51b81526004016102ee90611392565b6002600155600354604051630aa59f9d60e21b8152336004820181905260248201849052916000916001600160a01b0390911690632a967e74906044016020604051808303816000875af11580156103c1573d6000803e3d6000fd5b505050506040513d601f19601f820116820180604052508101906103e591906113b6565b905080600460008282546103f991906113e5565b9091555050600254604051632770a7eb60e21b81526001600160a01b0384811660048301526024820184905290911690639dc29fac90604401600060405180830381600087803b15801561044c57600080fd5b505af1158015610460573d6000803e3d6000fd5b5050600a5461047d92506001600160a01b0316905030848461109b565b816001600160a01b03167f7fcf532c15f0a6db0bd6d0e038bea71d30d808c7d98cb3bf7268a95bf5081b65826040516104b891815260200190565b60405180910390a250506001805550565b6000546001600160a01b031633146104f35760405162461bcd60e51b81526004016102ee90611333565b7f0000000000000000000000000000000000000000000000000000000000000000600854036105245761052461112f565b565b6000546001600160a01b031633146105505760405162461bcd60e51b81526004016102ee90611333565b600054600160a01b900460ff166105795760405162461bcd60e51b81526004016102ee906113fc565b7f000000000000000000000000000000000000000000000000000000000000000060085403610524577f0000000000000000000000000000000000000000000000000000000000000000600855565b600054600160a01b900460ff166105f15760405162461bcd60e51b81526004016102ee906113fc565b6001546001146106135760405162461bcd60e51b81526004016102ee90611392565b60026001556008547f0000000000000000000000000000000000000000000000000000000000000000900361065b576040516393282d7960e01b815260040160405180910390fd5b600354604051630aa59f9d60e21b8152336004820181905260248201849052916000916001600160a01b0390911690632a967e74906044016020604051808303816000875af11580156106b2573d6000803e3d6000fd5b505050506040513d601f19601f820116820180604052508101906106d691906113b6565b905080600460008282546106ea91906113e5565b9091555050600a5461047d906001600160a01b031630848461109b565b60008054600160a01b900460ff16156107325760405162461bcd60e51b81526004016102ee90611368565b6001546001146107545760405162461bcd60e51b81526004016102ee90611392565b6002600155600354604051633d76fbe760e01b815233600482018190526024820186905260448201859052916001600160a01b031690633d76fbe790606401600060405180830381600087803b1580156107ad57600080fd5b505af11580156107c1573d6000803e3d6000fd5b5050600254604051632770a7eb60e21b81526001600160a01b038581166004830152602482018890529091169250639dc29fac9150604401600060405180830381600087803b15801561081357600080fd5b505af1158015610827573d6000803e3d6000fd5b50505050826004600082825461083d91906113e5565b9091555050600a5461085a906001600160a01b031630838661109b565b60408051858152602081018590526001600160a01b038316917fdce1ff34f77604efe8bdf83d1ef8cf7d8cf9bcde3033915f688d53c6b3f7a87a910160405180910390a26002546040516370a0823160e01b81526001600160a01b038381166004830152909116906370a0823190602401602060405180830381865afa1580156108e8573d6000803e3d6000fd5b505050506040513d601f19601f8201168201806040525081019061090c91906113b6565b60018055949350505050565b60008054600160a01b900460ff16156109435760405162461bcd60e51b81526004016102ee90611368565b6001546001146109655760405162461bcd60e51b81526004016102ee90611392565b6002600155600082900361098c57604051632276454960e21b815260040160405180910390fd5b600554600454106109b05760405163afb218df60e01b815260040160405180910390fd5b3360006109bc846111a5565b905080600760008282546109d0919061142a565b90915550600090506109e282866113e5565b905080600460008282546109f6919061142a565b9091555050600a54610a13906001600160a01b031684308861109b565b60035460405163ba0a95b760e01b815260048101889052602481018390526001600160a01b039091169063ba0a95b790604401600060405180830381600087803b158015610a6057600080fd5b505af1158015610a74573d6000803e3d6000fd5b50506002546040516340c10f1960e01b81526001600160a01b0387811660048301526024820186905290911692506340c10f199150604401600060405180830381600087803b158015610ac657600080fd5b505af1158015610ada573d6000803e3d6000fd5b5050604080516001600160a01b0387168152602081018990527f8a01570f25dbfff1cacbc0c3553049898c2b3bf47213fe0eed7b2bca6134b297935001905060405180910390a16002546040516370a0823160e01b81526001600160a01b038581166004830152909116906370a0823190602401602060405180830381865afa158015610b6b573d6000803e3d6000fd5b505050506040513d601f19601f82011682018060405250810190610b8f91906113b6565b600180559695505050505050565b6000546001600160a01b03163314610bc75760405162461bcd60e51b81526004016102ee90611333565b600980546001600160a01b0319166001600160a01b0392909216919091179055565b6000546001600160a01b03163314610c135760405162461bcd60e51b81526004016102ee90611333565b61052460006111ca565b6000546001600160a01b03163314610c475760405162461bcd60e51b81526004016102ee90611333565b600555565b6000546001600160a01b03163314610c765760405162461bcd60e51b81526004016102ee90611333565b61052461121a565b6000546001600160a01b03163314610ca85760405162461bcd60e51b81526004016102ee90611333565b600754600003610ccb5760405163f09872eb60e01b815260040160405180910390fd5b600780549081906000610cde83806113e5565b9091555050600954600a54610d02916001600160a01b03918216913091168461109b565b50565b60008054600160a01b900460ff1615610d305760405162461bcd60e51b81526004016102ee90611368565b600154600114610d525760405162461bcd60e51b81526004016102ee90611392565b60026001556000829003610d7957604051632276454960e21b815260040160405180910390fd5b60055460045410610d9d5760405163afb218df60e01b815260040160405180910390fd5b336000610da9846111a5565b90508060076000828254610dbd919061142a565b9091555060009050610dcf82866113e5565b90508060046000828254610de3919061142a565b9091555050600a54610e00906001600160a01b031684308861109b565b6002546040516340c10f1960e01b81526001600160a01b03858116600483015260248201849052909116906340c10f1990604401600060405180830381600087803b158015610e4e57600080fd5b505af1158015610e62573d6000803e3d6000fd5b5050600354604051631e3db78560e01b81526001600160a01b038781166004830152602482018690529091169250631e3db7859150604401600060405180830381600087803b158015610eb457600080fd5b505af1158015610ec8573d6000803e3d6000fd5b50505050826001600160a01b03167fe1fffcc4923d04b559f4d29a8bfc6cda04eb5b0d3c460751c2402c5c5cc9109c82604051610f0791815260200190565b60405180910390a26002546040516370a0823160e01b81526001600160a01b038581166004830152909116906370a0823190602401602060405180830381865afa158015610f59573d6000803e3d6000fd5b505050506040513d601f19601f82011682018060405250810190610f7d91906113b6565b6001805595945050505050565b6000546001600160a01b03163314610fb45760405162461bcd60e51b81526004016102ee90611333565b6001600160a01b0381166110195760405162461bcd60e51b815260206004820152602660248201527f4f776e61626c653a206e6577206f776e657220697320746865207a65726f206160448201526564647265737360d01b60648201526084016102ee565b610d02816111ca565b6000546001600160a01b0316331461104c5760405162461bcd60e51b81526004016102ee90611333565b7f000000000000000000000000000000000000000000000000000000000000000060085403610524577f0000000000000000000000000000000000000000000000000000000000000000600855565b60006040516323b872dd60e01b81526001600160a01b03851660048201526001600160a01b038416602482015282604482015260008060648360008a5af19150506110e58161127f565b6111285760405162461bcd60e51b81526020600482015260146024820152731514905394d1915497d19493d357d1905253115160621b60448201526064016102ee565b5050505050565b600054600160a01b900460ff166111585760405162461bcd60e51b81526004016102ee906113fc565b6000805460ff60a01b191690557f5db9ee0a495bf2e6ff9c91a7834c1ba4fdd244a5e8aa4e537bd38aeae4b073aa335b6040516001600160a01b03909116815260200160405180910390a1565b600080612710600654846111b99190611442565b6111c39190611461565b9392505050565b600080546001600160a01b038381166001600160a01b0319831681178455604051919092169283917f8be0079c531659141344cd1fd0a4f28419497f9722a3daafe3b4186f6b6457e09190a35050565b600054600160a01b900460ff16156112445760405162461bcd60e51b81526004016102ee90611368565b6000805460ff60a01b1916600160a01b1790557f62e78cea01bee320cd4e420270b5ea74000d11b0c9f74754ebdbfc544b05a2586111883390565b60003d8261129157806000803e806000fd5b80602081146112a95780156112ba57600092506112bf565b816000803e600051151592506112bf565b600192505b5050919050565b6001600160a01b0381168114610d0257600080fd5b6000602082840312156112ed57600080fd5b81356111c3816112c6565b60006020828403121561130a57600080fd5b5035919050565b6000806040838503121561132457600080fd5b50508035926020909101359150565b6020808252818101527f4f776e61626c653a2063616c6c6572206973206e6f7420746865206f776e6572604082015260600190565b60208082526010908201526f14185d5cd8589b194e881c185d5cd95960821b604082015260600190565b6020808252600a90820152695245454e5452414e435960b01b604082015260600190565b6000602082840312156113c857600080fd5b5051919050565b634e487b7160e01b600052601160045260246000fd5b6000828210156113f7576113f76113cf565b500390565b60208082526014908201527314185d5cd8589b194e881b9bdd081c185d5cd95960621b604082015260600190565b6000821982111561143d5761143d6113cf565b500190565b600081600019048311821515161561145c5761145c6113cf565b500290565b60008261147e57634e487b7160e01b600052601260045260246000fd5b50049056fea2646970667358221220815b1f085eefebf531a17d14efaecf11ee4600221c75c43eb53c488b8dc51b6b64736f6c634300080d0033",
    "linkReferences": {}
  }
}