{
  "abi": [
    {
      "inputs": [],
      "name": "AmountExceedsDepositValue",
      "type": "error"
    },
    {
      "inputs": [],
      "name": "NotCurrentHolder",
      "type": "error"
    },
    {
      "anonymous": false,
      "inputs": [
        {
          "indexed": false,
          "internalType": "uint256",
          "name": "tokenId",
          "type": "uint256"
        },
        {
          "indexed": false,
          "internalType": "uint256",
          "name": "amount",
          "type": "uint256"
        }
      ],
      "name": "AddValue",
      "type": "event"
    },
    {
      "anonymous": false,
      "inputs": [
        {
          "indexed": true,
          "internalType": "address",
          "name": "owner",
          "type": "address"
        },
        {
          "indexed": true,
          "internalType": "address",
          "name": "approved",
          "type": "address"
        },
        {
          "indexed": true,
          "internalType": "uint256",
          "name": "tokenId",
          "type": "uint256"
        }
      ],
      "name": "Approval",
      "type": "event"
    },
    {
      "anonymous": false,
      "inputs": [
        {
          "indexed": true,
          "internalType": "address",
          "name": "owner",
          "type": "address"
        },
        {
          "indexed": true,
          "internalType": "address",
          "name": "operator",
          "type": "address"
        },
        {
          "indexed": false,
          "internalType": "bool",
          "name": "approved",
          "type": "bool"
        }
      ],
      "name": "ApprovalForAll",
      "type": "event"
    },
    {
      "anonymous": false,
      "inputs": [
        {
          "indexed": true,
          "internalType": "address",
          "name": "customer",
          "type": "address"
        },
        {
          "indexed": false,
          "internalType": "uint256",
          "name": "tokenId",
          "type": "uint256"
        },
        {
          "indexed": false,
          "internalType": "uint256",
          "name": "value",
          "type": "uint256"
        }
      ],
      "name": "Deleted",
      "type": "event"
    },
    {
      "anonymous": false,
      "inputs": [
        {
          "indexed": true,
          "internalType": "address",
          "name": "previousOwner",
          "type": "address"
        },
        {
          "indexed": true,
          "internalType": "address",
          "name": "newOwner",
          "type": "address"
        }
      ],
      "name": "OwnershipTransferred",
      "type": "event"
    },
    {
      "anonymous": false,
      "inputs": [
        {
          "indexed": true,
          "internalType": "address",
          "name": "customer",
          "type": "address"
        },
        {
          "indexed": false,
          "internalType": "uint256",
          "name": "tokenId",
          "type": "uint256"
        },
        {
          "indexed": false,
          "internalType": "uint256",
          "name": "amount",
          "type": "uint256"
        }
      ],
      "name": "SubtractValue",
      "type": "event"
    },
    {
      "anonymous": false,
      "inputs": [
        {
          "indexed": true,
          "internalType": "address",
          "name": "from",
          "type": "address"
        },
        {
          "indexed": true,
          "internalType": "address",
          "name": "to",
          "type": "address"
        },
        {
          "indexed": true,
          "internalType": "uint256",
          "name": "tokenId",
          "type": "uint256"
        }
      ],
      "name": "Transfer",
      "type": "event"
    },
    {
      "inputs": [],
      "name": "_tokenId",
      "outputs": [
        {
          "internalType": "uint256",
          "name": "",
          "type": "uint256"
        }
      ],
      "stateMutability": "view",
      "type": "function"
    },
    {
      "inputs": [
        {
          "internalType": "uint256",
          "name": "tokenId",
          "type": "uint256"
        },
        {
          "internalType": "uint256",
          "name": "amount",
          "type": "uint256"
        }
      ],
      "name": "addValueToCREDIT",
      "outputs": [],
      "stateMutability": "nonpayable",
      "type": "function"
    },
    {
      "inputs": [
        {
          "internalType": "address",
          "name": "to",
          "type": "address"
        },
        {
          "internalType": "uint256",
          "name": "tokenId",
          "type": "uint256"
        }
      ],
      "name": "approve",
      "outputs": [],
      "stateMutability": "nonpayable",
      "type": "function"
    },
    {
      "inputs": [
        {
          "internalType": "address",
          "name": "owner",
          "type": "address"
        }
      ],
      "name": "balanceOf",
      "outputs": [
        {
          "internalType": "uint256",
          "name": "",
          "type": "uint256"
        }
      ],
      "stateMutability": "view",
      "type": "function"
    },
    {
      "inputs": [
        {
          "internalType": "address",
          "name": "customer",
          "type": "address"
        },
        {
          "internalType": "uint256",
          "name": "amount",
          "type": "uint256"
        }
      ],
      "name": "createCREDIT",
      "outputs": [],
      "stateMutability": "nonpayable",
      "type": "function"
    },
    {
      "inputs": [
        {
          "internalType": "address",
          "name": "customer",
          "type": "address"
        },
        {
          "internalType": "uint256",
          "name": "tokenId",
          "type": "uint256"
        }
      ],
      "name": "deleteCREDIT",
      "outputs": [
        {
          "internalType": "uint256",
          "name": "value",
          "type": "uint256"
        }
      ],
      "stateMutability": "nonpayable",
      "type": "function"
    },
    {
      "inputs": [
        {
          "internalType": "uint256",
          "name": "",
          "type": "uint256"
        }
      ],
      "name": "depositValue",
      "outputs": [
        {
          "internalType": "uint256",
          "name": "",
          "type": "uint256"
        }
      ],
      "stateMutability": "view",
      "type": "function"
    },
    {
      "inputs": [
        {
          "internalType": "uint256",
          "name": "tokenId",
          "type": "uint256"
        }
      ],
      "name": "getApproved",
      "outputs": [
        {
          "internalType": "address",
          "name": "",
          "type": "address"
        }
      ],
      "stateMutability": "view",
      "type": "function"
    },
    {
      "inputs": [
        {
          "internalType": "address",
          "name": "owner",
          "type": "address"
        },
        {
          "internalType": "address",
          "name": "operator",
          "type": "address"
        }
      ],
      "name": "isApprovedForAll",
      "outputs": [
        {
          "internalType": "bool",
          "name": "",
          "type": "bool"
        }
      ],
      "stateMutability": "view",
      "type": "function"
    },
    {
      "inputs": [],
      "name": "name",
      "outputs": [
        {
          "internalType": "string",
          "name": "",
          "type": "string"
        }
      ],
      "stateMutability": "view",
      "type": "function"
    },
    {
      "inputs": [],
      "name": "owner",
      "outputs": [
        {
          "internalType": "address",
          "name": "",
          "type": "address"
        }
      ],
      "stateMutability": "view",
      "type": "function"
    },
    {
      "inputs": [
        {
          "internalType": "uint256",
          "name": "tokenId",
          "type": "uint256"
        }
      ],
      "name": "ownerOf",
      "outputs": [
        {
          "internalType": "address",
          "name": "",
          "type": "address"
        }
      ],
      "stateMutability": "view",
      "type": "function"
    },
    {
      "inputs": [],
      "name": "renounceOwnership",
      "outputs": [],
      "stateMutability": "nonpayable",
      "type": "function"
    },
    {
      "inputs": [
        {
          "internalType": "address",
          "name": "from",
          "type": "address"
        },
        {
          "internalType": "address",
          "name": "to",
          "type": "address"
        },
        {
          "internalType": "uint256",
          "name": "tokenId",
          "type": "uint256"
        }
      ],
      "name": "safeTransferFrom",
      "outputs": [],
      "stateMutability": "nonpayable",
      "type": "function"
    },
    {
      "inputs": [
        {
          "internalType": "address",
          "name": "from",
          "type": "address"
        },
        {
          "internalType": "address",
          "name": "to",
          "type": "address"
        },
        {
          "internalType": "uint256",
          "name": "tokenId",
          "type": "uint256"
        },
        {
          "internalType": "bytes",
          "name": "data",
          "type": "bytes"
        }
      ],
      "name": "safeTransferFrom",
      "outputs": [],
      "stateMutability": "nonpayable",
      "type": "function"
    },
    {
      "inputs": [
        {
          "internalType": "address",
          "name": "operator",
          "type": "address"
        },
        {
          "internalType": "bool",
          "name": "approved",
          "type": "bool"
        }
      ],
      "name": "setApprovalForAll",
      "outputs": [],
      "stateMutability": "nonpayable",
      "type": "function"
    },
    {
      "inputs": [
        {
          "internalType": "address",
          "name": "customer",
          "type": "address"
        },
        {
          "internalType": "uint256",
          "name": "tokenId",
          "type": "uint256"
        },
        {
          "internalType": "uint256",
          "name": "amount",
          "type": "uint256"
        }
      ],
      "name": "subtractValueFromCREDIT",
      "outputs": [],
      "stateMutability": "nonpayable",
      "type": "function"
    },
    {
      "inputs": [
        {
          "internalType": "bytes4",
          "name": "interfaceId",
          "type": "bytes4"
        }
      ],
      "name": "supportsInterface",
      "outputs": [
        {
          "internalType": "bool",
          "name": "",
          "type": "bool"
        }
      ],
      "stateMutability": "view",
      "type": "function"
    },
    {
      "inputs": [],
      "name": "symbol",
      "outputs": [
        {
          "internalType": "string",
          "name": "",
          "type": "string"
        }
      ],
      "stateMutability": "view",
      "type": "function"
    },
    {
      "inputs": [
        {
          "internalType": "uint256",
          "name": "tokenId",
          "type": "uint256"
        }
      ],
      "name": "tokenURI",
      "outputs": [
        {
          "internalType": "string",
          "name": "",
          "type": "string"
        }
      ],
      "stateMutability": "view",
      "type": "function"
    },
    {
      "inputs": [
        {
          "internalType": "address",
          "name": "from",
          "type": "address"
        },
        {
          "internalType": "address",
          "name": "to",
          "type": "address"
        },
        {
          "internalType": "uint256",
          "name": "tokenId",
          "type": "uint256"
        }
      ],
      "name": "transferFrom",
      "outputs": [],
      "stateMutability": "nonpayable",
      "type": "function"
    },
    {
      "inputs": [
        {
          "internalType": "address",
          "name": "newOwner",
          "type": "address"
        }
      ],
      "name": "transferOwnership",
      "outputs": [],
      "stateMutability": "nonpayable",
      "type": "function"
    }
  ],
  "bytecode": {
    "object": "0x60806040523480156200001157600080fd5b50604080518082018252601181527015195b5c1d5cc81110524810dc99591a5d607a1b60208083019182528351808501909452600a8452691d11105250d49151125560b21b9084015281519192916200006d91600091620000fc565b50805162000083906001906020840190620000fc565b505050620000a06200009a620000a660201b60201c565b620000aa565b620001de565b3390565b600680546001600160a01b038381166001600160a01b0319831681179093556040519116919082907f8be0079c531659141344cd1fd0a4f28419497f9722a3daafe3b4186f6b6457e090600090a35050565b8280546200010a90620001a2565b90600052602060002090601f0160209004810192826200012e576000855562000179565b82601f106200014957805160ff191683800117855562000179565b8280016001018555821562000179579182015b82811115620001795782518255916020019190600101906200015c565b50620001879291506200018b565b5090565b5b808211156200018757600081556001016200018c565b600181811c90821680620001b757607f821691505b602082108103620001d857634e487b7160e01b600052602260045260246000fd5b50919050565b6119f480620001ee6000396000f3fe608060405234801561001057600080fd5b50600436106101425760003560e01c806370a08231116100b8578063b88d4fde1161007c578063b88d4fde14610294578063ba0a95b7146102a7578063c87b56dd146102ba578063e396c2fb146102cd578063e985e9c5146102ed578063f2fde38b1461032957600080fd5b806370a082311461024d578063715018a6146102605780638da5cb5b1461026857806395d89b4114610279578063a22cb4651461028157600080fd5b806323b872dd1161010a57806323b872dd146101d757806324822514146101ea5780632a967e74146102015780633d76fbe71461021457806342842e0e146102275780636352211e1461023a57600080fd5b806301ffc9a71461014757806306fdde031461016f578063081812fc14610184578063095ea7b3146101af5780631e3db785146101c4575b600080fd5b61015a61015536600461147d565b61033c565b60405190151581526020015b60405180910390f35b61017761038e565b60405161016691906114f2565b610197610192366004611505565b610420565b6040516001600160a01b039091168152602001610166565b6101c26101bd36600461153a565b6104ba565b005b6101c26101d236600461153a565b6105cf565b6101c26101e5366004611564565b61062c565b6101f360075481565b604051908152602001610166565b6101f361020f36600461153a565b61065d565b6101c26102223660046115a0565b610732565b6101c2610235366004611564565b610836565b610197610248366004611505565b610851565b6101f361025b3660046115d3565b6108c8565b6101c261094e565b6006546001600160a01b0316610197565b610177610984565b6101c261028f3660046115ee565b610993565b6101c26102a2366004611640565b6109a2565b6101c26102b536600461171c565b6109da565b6101776102c8366004611505565b610a64565b6101f36102db366004611505565b60086020526000908152604090205481565b61015a6102fb36600461173e565b6001600160a01b03918216600090815260056020908152604080832093909416825291909152205460ff1690565b6101c26103373660046115d3565b610b4c565b60006001600160e01b031982166380ac58cd60e01b148061036d57506001600160e01b03198216635b5e139f60e01b145b8061038857506301ffc9a760e01b6001600160e01b03198316145b92915050565b60606000805461039d90611771565b80601f01602080910402602001604051908101604052809291908181526020018280546103c990611771565b80156104165780601f106103eb57610100808354040283529160200191610416565b820191906000526020600020905b8154815290600101906020018083116103f957829003601f168201915b5050505050905090565b6000818152600260205260408120546001600160a01b031661049e5760405162461bcd60e51b815260206004820152602c60248201527f4552433732313a20617070726f76656420717565727920666f72206e6f6e657860448201526b34b9ba32b73a103a37b5b2b760a11b60648201526084015b60405180910390fd5b506000908152600460205260409020546001600160a01b031690565b60006104c582610851565b9050806001600160a01b0316836001600160a01b0316036105325760405162461bcd60e51b815260206004820152602160248201527f4552433732313a20617070726f76616c20746f2063757272656e74206f776e656044820152603960f91b6064820152608401610495565b336001600160a01b038216148061054e575061054e81336102fb565b6105c05760405162461bcd60e51b815260206004820152603860248201527f4552433732313a20617070726f76652063616c6c6572206973206e6f74206f7760448201527f6e6572206e6f7220617070726f76656420666f7220616c6c00000000000000006064820152608401610495565b6105ca8383610be7565b505050565b6006546001600160a01b031633146105f95760405162461bcd60e51b8152600401610495906117ab565b600060076000815461060a906117f6565b9182905550600081815260086020526040902083905590506105ca8382610c55565b6106363382610c6f565b6106525760405162461bcd60e51b81526004016104959061180f565b6105ca838383610d66565b6006546000906001600160a01b0316331461068a5760405162461bcd60e51b8152600401610495906117ab565b600061069583610851565b9050836001600160a01b0316816001600160a01b0316146106c957604051630600622360e51b815260040160405180910390fd5b6000838152600860205260408120805491905591506106e783610f02565b60408051848152602081018490526001600160a01b038616917f57deefc90ca0eb3d6d896a4570d2a29d971e33110a52c67513ab710d4f5c6261910160405180910390a25092915050565b6006546001600160a01b0316331461075c5760405162461bcd60e51b8152600401610495906117ab565b600061076783610851565b9050836001600160a01b0316816001600160a01b03161461079b57604051630600622360e51b815260040160405180910390fd5b60008381526008602052604090205482106107c95760405163608e66e960e11b815260040160405180910390fd5b600083815260086020526040812080548492906107e7908490611860565b909155505060408051848152602081018490526001600160a01b038616917f21cd7ff98577a4773977747689a69c57a1b1d89b00a50850277bc39914f6febb910160405180910390a250505050565b6105ca838383604051806020016040528060008152506109a2565b6000818152600260205260408120546001600160a01b0316806103885760405162461bcd60e51b815260206004820152602960248201527f4552433732313a206f776e657220717565727920666f72206e6f6e657869737460448201526832b73a103a37b5b2b760b91b6064820152608401610495565b60006001600160a01b0382166109325760405162461bcd60e51b815260206004820152602960248201527f4552433732313a2061646472657373207a65726f206973206e6f7420612076616044820152683634b21037bbb732b960b91b6064820152608401610495565b506001600160a01b031660009081526003602052604090205490565b6006546001600160a01b031633146109785760405162461bcd60e51b8152600401610495906117ab565b6109826000610f9d565b565b60606001805461039d90611771565b61099e338383610fef565b5050565b6109ac3383610c6f565b6109c85760405162461bcd60e51b81526004016104959061180f565b6109d4848484846110bd565b50505050565b6006546001600160a01b03163314610a045760405162461bcd60e51b8152600401610495906117ab565b60008281526008602052604081208054839290610a22908490611877565b909155505060408051838152602081018390527f31178d4ead1f7bef792b20c8b952d0cb2ba310cd351feca92ea8adc8c1f2edbd910160405180910390a15050565b6000818152600260205260409020546060906001600160a01b0316610ae35760405162461bcd60e51b815260206004820152602f60248201527f4552433732314d657461646174613a2055524920717565727920666f72206e6f60448201526e3732bc34b9ba32b73a103a37b5b2b760891b6064820152608401610495565b6000610afa60408051602081019091526000815290565b90506000815111610b1a5760405180602001604052806000815250610b45565b80610b24846110f0565b604051602001610b3592919061188f565b6040516020818303038152906040525b9392505050565b6006546001600160a01b03163314610b765760405162461bcd60e51b8152600401610495906117ab565b6001600160a01b038116610bdb5760405162461bcd60e51b815260206004820152602660248201527f4f776e61626c653a206e6577206f776e657220697320746865207a65726f206160448201526564647265737360d01b6064820152608401610495565b610be481610f9d565b50565b600081815260046020526040902080546001600160a01b0319166001600160a01b0384169081179091558190610c1c82610851565b6001600160a01b03167f8c5be1e5ebec7d5bd14f71427d1e84f3dd0314c0f7b2291e5b200ac8c7c3b92560405160405180910390a45050565b61099e8282604051806020016040528060008152506111f1565b6000818152600260205260408120546001600160a01b0316610ce85760405162461bcd60e51b815260206004820152602c60248201527f4552433732313a206f70657261746f7220717565727920666f72206e6f6e657860448201526b34b9ba32b73a103a37b5b2b760a11b6064820152608401610495565b6000610cf383610851565b9050806001600160a01b0316846001600160a01b03161480610d3a57506001600160a01b0380821660009081526005602090815260408083209388168352929052205460ff165b80610d5e5750836001600160a01b0316610d5384610420565b6001600160a01b0316145b949350505050565b826001600160a01b0316610d7982610851565b6001600160a01b031614610ddd5760405162461bcd60e51b815260206004820152602560248201527f4552433732313a207472616e736665722066726f6d20696e636f72726563742060448201526437bbb732b960d91b6064820152608401610495565b6001600160a01b038216610e3f5760405162461bcd60e51b8152602060048201526024808201527f4552433732313a207472616e7366657220746f20746865207a65726f206164646044820152637265737360e01b6064820152608401610495565b610e4a600082610be7565b6001600160a01b0383166000908152600360205260408120805460019290610e73908490611860565b90915550506001600160a01b0382166000908152600360205260408120805460019290610ea1908490611877565b909155505060008181526002602052604080822080546001600160a01b0319166001600160a01b0386811691821790925591518493918716917fddf252ad1be2c89b69c2b068fc378daa952ba7f163c4a11628f55a4df523b3ef91a4505050565b6000610f0d82610851565b9050610f1a600083610be7565b6001600160a01b0381166000908152600360205260408120805460019290610f43908490611860565b909155505060008281526002602052604080822080546001600160a01b0319169055518391906001600160a01b038416907fddf252ad1be2c89b69c2b068fc378daa952ba7f163c4a11628f55a4df523b3ef908390a45050565b600680546001600160a01b038381166001600160a01b0319831681179093556040519116919082907f8be0079c531659141344cd1fd0a4f28419497f9722a3daafe3b4186f6b6457e090600090a35050565b816001600160a01b0316836001600160a01b0316036110505760405162461bcd60e51b815260206004820152601960248201527f4552433732313a20617070726f766520746f2063616c6c6572000000000000006044820152606401610495565b6001600160a01b03838116600081815260056020908152604080832094871680845294825291829020805460ff191686151590811790915591519182527f17307eab39ab6107e8899845ad3d59bd9653f200f220920489ca2b5937696c31910160405180910390a3505050565b6110c8848484610d66565b6110d484848484611224565b6109d45760405162461bcd60e51b8152600401610495906118be565b6060816000036111175750506040805180820190915260018152600360fc1b602082015290565b8160005b8115611141578061112b816117f6565b915061113a9050600a83611926565b915061111b565b60008167ffffffffffffffff81111561115c5761115c61162a565b6040519080825280601f01601f191660200182016040528015611186576020820181803683370190505b5090505b8415610d5e5761119b600183611860565b91506111a8600a8661193a565b6111b3906030611877565b60f81b8183815181106111c8576111c861194e565b60200101906001600160f81b031916908160001a9053506111ea600a86611926565b945061118a565b6111fb8383611325565b6112086000848484611224565b6105ca5760405162461bcd60e51b8152600401610495906118be565b60006001600160a01b0384163b1561131a57604051630a85bd0160e11b81526001600160a01b0385169063150b7a0290611268903390899088908890600401611964565b6020604051808303816000875af19250505080156112a3575060408051601f3d908101601f191682019092526112a0918101906119a1565b60015b611300573d8080156112d1576040519150601f19603f3d011682016040523d82523d6000602084013e6112d6565b606091505b5080516000036112f85760405162461bcd60e51b8152600401610495906118be565b805181602001fd5b6001600160e01b031916630a85bd0160e11b149050610d5e565b506001949350505050565b6001600160a01b03821661137b5760405162461bcd60e51b815260206004820181905260248201527f4552433732313a206d696e7420746f20746865207a65726f20616464726573736044820152606401610495565b6000818152600260205260409020546001600160a01b0316156113e05760405162461bcd60e51b815260206004820152601c60248201527f4552433732313a20746f6b656e20616c7265616479206d696e746564000000006044820152606401610495565b6001600160a01b0382166000908152600360205260408120805460019290611409908490611877565b909155505060008181526002602052604080822080546001600160a01b0319166001600160a01b03861690811790915590518392907fddf252ad1be2c89b69c2b068fc378daa952ba7f163c4a11628f55a4df523b3ef908290a45050565b6001600160e01b031981168114610be457600080fd5b60006020828403121561148f57600080fd5b8135610b4581611467565b60005b838110156114b557818101518382015260200161149d565b838111156109d45750506000910152565b600081518084526114de81602086016020860161149a565b601f01601f19169290920160200192915050565b602081526000610b4560208301846114c6565b60006020828403121561151757600080fd5b5035919050565b80356001600160a01b038116811461153557600080fd5b919050565b6000806040838503121561154d57600080fd5b6115568361151e565b946020939093013593505050565b60008060006060848603121561157957600080fd5b6115828461151e565b92506115906020850161151e565b9150604084013590509250925092565b6000806000606084860312156115b557600080fd5b6115be8461151e565b95602085013595506040909401359392505050565b6000602082840312156115e557600080fd5b610b458261151e565b6000806040838503121561160157600080fd5b61160a8361151e565b91506020830135801515811461161f57600080fd5b809150509250929050565b634e487b7160e01b600052604160045260246000fd5b6000806000806080858703121561165657600080fd5b61165f8561151e565b935061166d6020860161151e565b925060408501359150606085013567ffffffffffffffff8082111561169157600080fd5b818701915087601f8301126116a557600080fd5b8135818111156116b7576116b761162a565b604051601f8201601f19908116603f011681019083821181831017156116df576116df61162a565b816040528281528a60208487010111156116f857600080fd5b82602086016020830137600060208483010152809550505050505092959194509250565b6000806040838503121561172f57600080fd5b50508035926020909101359150565b6000806040838503121561175157600080fd5b61175a8361151e565b91506117686020840161151e565b90509250929050565b600181811c9082168061178557607f821691505b6020821081036117a557634e487b7160e01b600052602260045260246000fd5b50919050565b6020808252818101527f4f776e61626c653a2063616c6c6572206973206e6f7420746865206f776e6572604082015260600190565b634e487b7160e01b600052601160045260246000fd5b600060018201611808576118086117e0565b5060010190565b60208082526031908201527f4552433732313a207472616e736665722063616c6c6572206973206e6f74206f6040820152701ddb995c881b9bdc88185c1c1c9bdd9959607a1b606082015260800190565b600082821015611872576118726117e0565b500390565b6000821982111561188a5761188a6117e0565b500190565b600083516118a181846020880161149a565b8351908301906118b581836020880161149a565b01949350505050565b60208082526032908201527f4552433732313a207472616e7366657220746f206e6f6e20455243373231526560408201527131b2b4bb32b91034b6b83632b6b2b73a32b960711b606082015260800190565b634e487b7160e01b600052601260045260246000fd5b60008261193557611935611910565b500490565b60008261194957611949611910565b500690565b634e487b7160e01b600052603260045260246000fd5b6001600160a01b0385811682528416602082015260408101839052608060608201819052600090611997908301846114c6565b9695505050505050565b6000602082840312156119b357600080fd5b8151610b458161146756fea26469706673582212201524bb4b36fc0ef0298a9064aeedcbd2c34de1aea74c8a9173ce676b54d0839864736f6c634300080d0033",
    "linkReferences": {}
  }
}